{
  "contractName": "ERC20PresetMinterPauserCapper",
  "abi": [
    {
      "inputs": [
        {
          "internalType": "string",
          "name": "name",
          "type": "string"
        },
        {
          "internalType": "string",
          "name": "symbol",
          "type": "string"
        },
        {
          "internalType": "uint256",
          "name": "cap_",
          "type": "uint256"
        }
      ],
      "stateMutability": "nonpayable",
      "type": "constructor"
    },
    {
      "anonymous": false,
      "inputs": [
        {
          "indexed": true,
          "internalType": "address",
          "name": "owner",
          "type": "address"
        },
        {
          "indexed": true,
          "internalType": "address",
          "name": "spender",
          "type": "address"
        },
        {
          "indexed": false,
          "internalType": "uint256",
          "name": "value",
          "type": "uint256"
        }
      ],
      "name": "Approval",
      "type": "event"
    },
    {
      "anonymous": false,
      "inputs": [
        {
          "indexed": false,
          "internalType": "address",
          "name": "account",
          "type": "address"
        }
      ],
      "name": "Paused",
      "type": "event"
    },
    {
      "anonymous": false,
      "inputs": [
        {
          "indexed": true,
          "internalType": "bytes32",
          "name": "role",
          "type": "bytes32"
        },
        {
          "indexed": true,
          "internalType": "bytes32",
          "name": "previousAdminRole",
          "type": "bytes32"
        },
        {
          "indexed": true,
          "internalType": "bytes32",
          "name": "newAdminRole",
          "type": "bytes32"
        }
      ],
      "name": "RoleAdminChanged",
      "type": "event"
    },
    {
      "anonymous": false,
      "inputs": [
        {
          "indexed": true,
          "internalType": "bytes32",
          "name": "role",
          "type": "bytes32"
        },
        {
          "indexed": true,
          "internalType": "address",
          "name": "account",
          "type": "address"
        },
        {
          "indexed": true,
          "internalType": "address",
          "name": "sender",
          "type": "address"
        }
      ],
      "name": "RoleGranted",
      "type": "event"
    },
    {
      "anonymous": false,
      "inputs": [
        {
          "indexed": true,
          "internalType": "bytes32",
          "name": "role",
          "type": "bytes32"
        },
        {
          "indexed": true,
          "internalType": "address",
          "name": "account",
          "type": "address"
        },
        {
          "indexed": true,
          "internalType": "address",
          "name": "sender",
          "type": "address"
        }
      ],
      "name": "RoleRevoked",
      "type": "event"
    },
    {
      "anonymous": false,
      "inputs": [
        {
          "indexed": true,
          "internalType": "address",
          "name": "from",
          "type": "address"
        },
        {
          "indexed": true,
          "internalType": "address",
          "name": "to",
          "type": "address"
        },
        {
          "indexed": false,
          "internalType": "uint256",
          "name": "value",
          "type": "uint256"
        }
      ],
      "name": "Transfer",
      "type": "event"
    },
    {
      "anonymous": false,
      "inputs": [
        {
          "indexed": false,
          "internalType": "address",
          "name": "account",
          "type": "address"
        }
      ],
      "name": "Unpaused",
      "type": "event"
    },
    {
      "inputs": [],
      "name": "CAPPER_ROLE",
      "outputs": [
        {
          "internalType": "bytes32",
          "name": "",
          "type": "bytes32"
        }
      ],
      "stateMutability": "view",
      "type": "function"
    },
    {
      "inputs": [],
      "name": "DEFAULT_ADMIN_ROLE",
      "outputs": [
        {
          "internalType": "bytes32",
          "name": "",
          "type": "bytes32"
        }
      ],
      "stateMutability": "view",
      "type": "function"
    },
    {
      "inputs": [],
      "name": "MINTER_ROLE",
      "outputs": [
        {
          "internalType": "bytes32",
          "name": "",
          "type": "bytes32"
        }
      ],
      "stateMutability": "view",
      "type": "function"
    },
    {
      "inputs": [],
      "name": "PAUSER_ROLE",
      "outputs": [
        {
          "internalType": "bytes32",
          "name": "",
          "type": "bytes32"
        }
      ],
      "stateMutability": "view",
      "type": "function"
    },
    {
      "inputs": [
        {
          "internalType": "address",
          "name": "owner",
          "type": "address"
        },
        {
          "internalType": "address",
          "name": "spender",
          "type": "address"
        }
      ],
      "name": "allowance",
      "outputs": [
        {
          "internalType": "uint256",
          "name": "",
          "type": "uint256"
        }
      ],
      "stateMutability": "view",
      "type": "function"
    },
    {
      "inputs": [
        {
          "internalType": "address",
          "name": "spender",
          "type": "address"
        },
        {
          "internalType": "uint256",
          "name": "amount",
          "type": "uint256"
        }
      ],
      "name": "approve",
      "outputs": [
        {
          "internalType": "bool",
          "name": "",
          "type": "bool"
        }
      ],
      "stateMutability": "nonpayable",
      "type": "function"
    },
    {
      "inputs": [
        {
          "internalType": "address",
          "name": "account",
          "type": "address"
        }
      ],
      "name": "balanceOf",
      "outputs": [
        {
          "internalType": "uint256",
          "name": "",
          "type": "uint256"
        }
      ],
      "stateMutability": "view",
      "type": "function"
    },
    {
      "inputs": [
        {
          "internalType": "uint256",
          "name": "amount",
          "type": "uint256"
        }
      ],
      "name": "burn",
      "outputs": [],
      "stateMutability": "nonpayable",
      "type": "function"
    },
    {
      "inputs": [
        {
          "internalType": "address",
          "name": "account",
          "type": "address"
        },
        {
          "internalType": "uint256",
          "name": "amount",
          "type": "uint256"
        }
      ],
      "name": "burnFrom",
      "outputs": [],
      "stateMutability": "nonpayable",
      "type": "function"
    },
    {
      "inputs": [],
      "name": "decimals",
      "outputs": [
        {
          "internalType": "uint8",
          "name": "",
          "type": "uint8"
        }
      ],
      "stateMutability": "view",
      "type": "function"
    },
    {
      "inputs": [
        {
          "internalType": "address",
          "name": "spender",
          "type": "address"
        },
        {
          "internalType": "uint256",
          "name": "subtractedValue",
          "type": "uint256"
        }
      ],
      "name": "decreaseAllowance",
      "outputs": [
        {
          "internalType": "bool",
          "name": "",
          "type": "bool"
        }
      ],
      "stateMutability": "nonpayable",
      "type": "function"
    },
    {
      "inputs": [
        {
          "internalType": "bytes32",
          "name": "role",
          "type": "bytes32"
        }
      ],
      "name": "getRoleAdmin",
      "outputs": [
        {
          "internalType": "bytes32",
          "name": "",
          "type": "bytes32"
        }
      ],
      "stateMutability": "view",
      "type": "function"
    },
    {
      "inputs": [
        {
          "internalType": "bytes32",
          "name": "role",
          "type": "bytes32"
        },
        {
          "internalType": "uint256",
          "name": "index",
          "type": "uint256"
        }
      ],
      "name": "getRoleMember",
      "outputs": [
        {
          "internalType": "address",
          "name": "",
          "type": "address"
        }
      ],
      "stateMutability": "view",
      "type": "function"
    },
    {
      "inputs": [
        {
          "internalType": "bytes32",
          "name": "role",
          "type": "bytes32"
        }
      ],
      "name": "getRoleMemberCount",
      "outputs": [
        {
          "internalType": "uint256",
          "name": "",
          "type": "uint256"
        }
      ],
      "stateMutability": "view",
      "type": "function"
    },
    {
      "inputs": [
        {
          "internalType": "bytes32",
          "name": "role",
          "type": "bytes32"
        },
        {
          "internalType": "address",
          "name": "account",
          "type": "address"
        }
      ],
      "name": "grantRole",
      "outputs": [],
      "stateMutability": "nonpayable",
      "type": "function"
    },
    {
      "inputs": [
        {
          "internalType": "bytes32",
          "name": "role",
          "type": "bytes32"
        },
        {
          "internalType": "address",
          "name": "account",
          "type": "address"
        }
      ],
      "name": "hasRole",
      "outputs": [
        {
          "internalType": "bool",
          "name": "",
          "type": "bool"
        }
      ],
      "stateMutability": "view",
      "type": "function"
    },
    {
      "inputs": [
        {
          "internalType": "address",
          "name": "spender",
          "type": "address"
        },
        {
          "internalType": "uint256",
          "name": "addedValue",
          "type": "uint256"
        }
      ],
      "name": "increaseAllowance",
      "outputs": [
        {
          "internalType": "bool",
          "name": "",
          "type": "bool"
        }
      ],
      "stateMutability": "nonpayable",
      "type": "function"
    },
    {
      "inputs": [],
      "name": "name",
      "outputs": [
        {
          "internalType": "string",
          "name": "",
          "type": "string"
        }
      ],
      "stateMutability": "view",
      "type": "function"
    },
    {
      "inputs": [],
      "name": "paused",
      "outputs": [
        {
          "internalType": "bool",
          "name": "",
          "type": "bool"
        }
      ],
      "stateMutability": "view",
      "type": "function"
    },
    {
      "inputs": [
        {
          "internalType": "bytes32",
          "name": "role",
          "type": "bytes32"
        },
        {
          "internalType": "address",
          "name": "account",
          "type": "address"
        }
      ],
      "name": "renounceRole",
      "outputs": [],
      "stateMutability": "nonpayable",
      "type": "function"
    },
    {
      "inputs": [
        {
          "internalType": "bytes32",
          "name": "role",
          "type": "bytes32"
        },
        {
          "internalType": "address",
          "name": "account",
          "type": "address"
        }
      ],
      "name": "revokeRole",
      "outputs": [],
      "stateMutability": "nonpayable",
      "type": "function"
    },
    {
      "inputs": [
        {
          "internalType": "bytes4",
          "name": "interfaceId",
          "type": "bytes4"
        }
      ],
      "name": "supportsInterface",
      "outputs": [
        {
          "internalType": "bool",
          "name": "",
          "type": "bool"
        }
      ],
      "stateMutability": "view",
      "type": "function"
    },
    {
      "inputs": [],
      "name": "symbol",
      "outputs": [
        {
          "internalType": "string",
          "name": "",
          "type": "string"
        }
      ],
      "stateMutability": "view",
      "type": "function"
    },
    {
      "inputs": [],
      "name": "totalSupply",
      "outputs": [
        {
          "internalType": "uint256",
          "name": "",
          "type": "uint256"
        }
      ],
      "stateMutability": "view",
      "type": "function"
    },
    {
      "inputs": [
        {
          "internalType": "address",
          "name": "recipient",
          "type": "address"
        },
        {
          "internalType": "uint256",
          "name": "amount",
          "type": "uint256"
        }
      ],
      "name": "transfer",
      "outputs": [
        {
          "internalType": "bool",
          "name": "",
          "type": "bool"
        }
      ],
      "stateMutability": "nonpayable",
      "type": "function"
    },
    {
      "inputs": [
        {
          "internalType": "address",
          "name": "sender",
          "type": "address"
        },
        {
          "internalType": "address",
          "name": "recipient",
          "type": "address"
        },
        {
          "internalType": "uint256",
          "name": "amount",
          "type": "uint256"
        }
      ],
      "name": "transferFrom",
      "outputs": [
        {
          "internalType": "bool",
          "name": "",
          "type": "bool"
        }
      ],
      "stateMutability": "nonpayable",
      "type": "function"
    },
    {
      "inputs": [
        {
          "internalType": "address",
          "name": "to",
          "type": "address"
        },
        {
          "internalType": "uint256",
          "name": "amount",
          "type": "uint256"
        }
      ],
      "name": "mint",
      "outputs": [],
      "stateMutability": "nonpayable",
      "type": "function"
    },
    {
      "inputs": [],
      "name": "pause",
      "outputs": [],
      "stateMutability": "nonpayable",
      "type": "function"
    },
    {
      "inputs": [],
      "name": "unpause",
      "outputs": [],
      "stateMutability": "nonpayable",
      "type": "function"
    },
    {
      "inputs": [],
      "name": "cap",
      "outputs": [
        {
          "internalType": "uint256",
          "name": "",
          "type": "uint256"
        }
      ],
      "stateMutability": "view",
      "type": "function"
    },
    {
      "inputs": [
        {
          "internalType": "uint256",
          "name": "cap_",
          "type": "uint256"
        }
      ],
      "name": "setCap",
      "outputs": [],
      "stateMutability": "nonpayable",
      "type": "function"
    }
  ],
  "bytecode": "0x60806040523480156200001157600080fd5b5060405162003dfa38038062003dfa833981810160405281019062000037919062000594565b82828160059080519060200190620000519291906200045b565b5080600690805190602001906200006a9291906200045b565b5050506000600760006101000a81548160ff021916908315150217905550620000ac6000801b620000a0620001c560201b60201c565b620001cd60201b60201c565b620000ed7f9f2df0fed2c77648de5860a4cc508cd0818c85b8b8a1ab4ceeef8d981c8956a6620000e1620001c560201b60201c565b620001cd60201b60201c565b6200012e7f65d7a28e3265b37a6474929f336521b332c1681b933f6cb9f3376673440d862a62000122620001c560201b60201c565b620001cd60201b60201c565b6200016f7f585dbb3f830c4325b9ffb1ad42c16ada76c518747b0fb7ee297b261fc6a0f29f62000163620001c560201b60201c565b620001cd60201b60201c565b60008111620001b5576040517f08c379a0000000000000000000000000000000000000000000000000000000008152600401620001ac9062000643565b60405180910390fd5b8060088190555050505062000859565b600033905090565b620001e482826200021560201b620010a91760201c565b6200021081600160008581526020019081526020016000206200022b60201b620010b71790919060201c565b505050565b6200022782826200026360201b60201c565b5050565b60006200025b836000018373ffffffffffffffffffffffffffffffffffffffff1660001b6200035460201b60201c565b905092915050565b620002758282620003ce60201b60201c565b6200035057600160008084815260200190815260200160002060000160008373ffffffffffffffffffffffffffffffffffffffff1673ffffffffffffffffffffffffffffffffffffffff16815260200190815260200160002060006101000a81548160ff021916908315150217905550620002f5620001c560201b60201c565b73ffffffffffffffffffffffffffffffffffffffff168173ffffffffffffffffffffffffffffffffffffffff16837f2f8788117e7eff1d82e926ec794901d17c78024a50270940304540a733656f0d60405160405180910390a45b5050565b60006200036883836200043860201b60201c565b620003c3578260000182908060018154018082558091505060019003906000526020600020016000909190919091505582600001805490508360010160008481526020019081526020016000208190555060019050620003c8565b600090505b92915050565b600080600084815260200190815260200160002060000160008373ffffffffffffffffffffffffffffffffffffffff1673ffffffffffffffffffffffffffffffffffffffff16815260200190815260200160002060009054906101000a900460ff16905092915050565b600080836001016000848152602001908152602001600020541415905092915050565b828054620004699062000715565b90600052602060002090601f0160209004810192826200048d5760008555620004d9565b82601f10620004a857805160ff1916838001178555620004d9565b82800160010185558215620004d9579182015b82811115620004d8578251825591602001919060010190620004bb565b5b509050620004e89190620004ec565b5090565b5b8082111562000507576000816000905550600101620004ed565b5090565b6000620005226200051c846200068e565b62000665565b9050828152602081018484840111156200053b57600080fd5b62000548848285620006df565b509392505050565b600082601f8301126200056257600080fd5b8151620005748482602086016200050b565b91505092915050565b6000815190506200058e816200083f565b92915050565b600080600060608486031215620005aa57600080fd5b600084015167ffffffffffffffff811115620005c557600080fd5b620005d38682870162000550565b935050602084015167ffffffffffffffff811115620005f157600080fd5b620005ff8682870162000550565b925050604062000612868287016200057d565b9150509250925092565b60006200062b602783620006c4565b91506200063882620007f0565b604082019050919050565b600060208201905081810360008301526200065e816200061c565b9050919050565b60006200067162000684565b90506200067f82826200074b565b919050565b6000604051905090565b600067ffffffffffffffff821115620006ac57620006ab620007b0565b5b620006b782620007df565b9050602081019050919050565b600082825260208201905092915050565b6000819050919050565b60005b83811015620006ff578082015181840152602081019050620006e2565b838111156200070f576000848401525b50505050565b600060028204905060018216806200072e57607f821691505b6020821081141562000745576200074462000781565b5b50919050565b6200075682620007df565b810181811067ffffffffffffffff82111715620007785762000777620007b0565b5b80604052505050565b7f4e487b7100000000000000000000000000000000000000000000000000000000600052602260045260246000fd5b7f4e487b7100000000000000000000000000000000000000000000000000000000600052604160045260246000fd5b6000601f19601f8301169050919050565b7f45524332305072657365744d696e7465725061757365724361707065723a206360008201527f6170206973203000000000000000000000000000000000000000000000000000602082015250565b6200084a81620006d5565b81146200085657600080fd5b50565b61359180620008696000396000f3fe608060405234801561001057600080fd5b50600436106101e55760003560e01c80635c975abb1161010f578063a457c2d7116100a2578063d539139311610071578063d5391393146105a6578063d547741f146105c4578063dd62ed3e146105e0578063e63ab1e914610610576101e5565b8063a457c2d7146104f8578063a9059cbb14610528578063c7108b4314610558578063ca15c87314610576576101e5565b80639010d07c116100de5780639010d07c1461045c57806391d148541461048c57806395d89b41146104bc578063a217fddf146104da576101e5565b80635c975abb146103e857806370a082311461040657806379cc6790146104365780638456cb5914610452576101e5565b8063313ce567116101875780633f4ba83a116101565780633f4ba83a1461038a57806340c10f191461039457806342966c68146103b057806347786d37146103cc576101e5565b8063313ce56714610302578063355274ea1461032057806336568abe1461033e578063395093511461035a576101e5565b806318160ddd116101c357806318160ddd1461026857806323b872dd14610286578063248a9ca3146102b65780632f2ff15d146102e6576101e5565b806301ffc9a7146101ea57806306fdde031461021a578063095ea7b314610238575b600080fd5b61020460048036038101906101ff91906123ab565b61062e565b6040516102119190612807565b60405180910390f35b6102226106a8565b60405161022f919061283d565b60405180910390f35b610252600480360381019061024d91906122ce565b61073a565b60405161025f9190612807565b60405180910390f35b610270610758565b60405161027d9190612b7f565b60405180910390f35b6102a0600480360381019061029b919061227f565b610762565b6040516102ad9190612807565b60405180910390f35b6102d060048036038101906102cb919061230a565b610863565b6040516102dd9190612822565b60405180910390f35b61030060048036038101906102fb9190612333565b610882565b005b61030a6108b6565b6040516103179190612b9a565b60405180910390f35b6103286108bf565b6040516103359190612b7f565b60405180910390f35b61035860048036038101906103539190612333565b6108c9565b005b610374600480360381019061036f91906122ce565b6108fd565b6040516103819190612807565b60405180910390f35b6103926109a9565b005b6103ae60048036038101906103a991906122ce565b610a23565b005b6103ca60048036038101906103c591906123d4565b610aa1565b005b6103e660048036038101906103e191906123d4565b610ab5565b005b6103f0610bbc565b6040516103fd9190612807565b60405180910390f35b610420600480360381019061041b919061221a565b610bd3565b60405161042d9190612b7f565b60405180910390f35b610450600480360381019061044b91906122ce565b610c1c565b005b61045a610ca0565b005b6104766004803603810190610471919061236f565b610d1a565b60405161048391906127ec565b60405180910390f35b6104a660048036038101906104a19190612333565b610d49565b6040516104b39190612807565b60405180910390f35b6104c4610db3565b6040516104d1919061283d565b60405180910390f35b6104e2610e45565b6040516104ef9190612822565b60405180910390f35b610512600480360381019061050d91906122ce565b610e4c565b60405161051f9190612807565b60405180910390f35b610542600480360381019061053d91906122ce565b610f40565b60405161054f9190612807565b60405180910390f35b610560610f5e565b60405161056d9190612822565b60405180910390f35b610590600480360381019061058b919061230a565b610f82565b60405161059d9190612b7f565b60405180910390f35b6105ae610fa6565b6040516105bb9190612822565b60405180910390f35b6105de60048036038101906105d99190612333565b610fca565b005b6105fa60048036038101906105f59190612243565b610ffe565b6040516106079190612b7f565b60405180910390f35b610618611085565b6040516106259190612822565b60405180910390f35b60007f5a05180f000000000000000000000000000000000000000000000000000000007bffffffffffffffffffffffffffffffffffffffffffffffffffffffff1916827bffffffffffffffffffffffffffffffffffffffffffffffffffffffff191614806106a157506106a0826110e7565b5b9050919050565b6060600580546106b790612d19565b80601f01602080910402602001604051908101604052809291908181526020018280546106e390612d19565b80156107305780601f1061070557610100808354040283529160200191610730565b820191906000526020600020905b81548152906001019060200180831161071357829003601f168201915b5050505050905090565b600061074e610747611161565b8484611169565b6001905092915050565b6000600454905090565b600061076f848484611334565b6000600360008673ffffffffffffffffffffffffffffffffffffffff1673ffffffffffffffffffffffffffffffffffffffff16815260200190815260200160002060006107ba611161565b73ffffffffffffffffffffffffffffffffffffffff1673ffffffffffffffffffffffffffffffffffffffff1681526020019081526020016000205490508281101561083a576040517f08c379a000000000000000000000000000000000000000000000000000000000815260040161083190612a1f565b60405180910390fd5b61085785610846611161565b85846108529190612c27565b611169565b60019150509392505050565b6000806000838152602001908152602001600020600101549050919050565b61088c82826115b6565b6108b181600160008581526020019081526020016000206110b790919063ffffffff16565b505050565b60006012905090565b6000600854905090565b6108d3828261161c565b6108f8816001600085815260200190815260200160002061169f90919063ffffffff16565b505050565b600061099f61090a611161565b848460036000610918611161565b73ffffffffffffffffffffffffffffffffffffffff1673ffffffffffffffffffffffffffffffffffffffff16815260200190815260200160002060008873ffffffffffffffffffffffffffffffffffffffff1673ffffffffffffffffffffffffffffffffffffffff1681526020019081526020016000205461099a9190612bd1565b611169565b6001905092915050565b6109da7f65d7a28e3265b37a6474929f336521b332c1681b933f6cb9f3376673440d862a6109d5611161565b610d49565b610a19576040517f08c379a0000000000000000000000000000000000000000000000000000000008152600401610a10906129bf565b60405180910390fd5b610a216116cf565b565b610a547f9f2df0fed2c77648de5860a4cc508cd0818c85b8b8a1ab4ceeef8d981c8956a6610a4f611161565b610d49565b610a93576040517f08c379a0000000000000000000000000000000000000000000000000000000008152600401610a8a906129df565b60405180910390fd5b610a9d8282611771565b5050565b610ab2610aac611161565b826118c6565b50565b610ae67f585dbb3f830c4325b9ffb1ad42c16ada76c518747b0fb7ee297b261fc6a0f29f610ae1611161565b610d49565b610b25576040517f08c379a0000000000000000000000000000000000000000000000000000000008152600401610b1c9061291f565b60405180910390fd5b610b2d610758565b811015610b6f576040517f08c379a0000000000000000000000000000000000000000000000000000000008152600401610b6690612adf565b60405180910390fd5b60008111610bb2576040517f08c379a0000000000000000000000000000000000000000000000000000000008152600401610ba99061295f565b60405180910390fd5b8060088190555050565b6000600760009054906101000a900460ff16905090565b6000600260008373ffffffffffffffffffffffffffffffffffffffff1673ffffffffffffffffffffffffffffffffffffffff168152602001908152602001600020549050919050565b6000610c2f83610c2a611161565b610ffe565b905081811015610c74576040517f08c379a0000000000000000000000000000000000000000000000000000000008152600401610c6b90612a3f565b60405180910390fd5b610c9183610c80611161565b8484610c8c9190612c27565b611169565b610c9b83836118c6565b505050565b610cd17f65d7a28e3265b37a6474929f336521b332c1681b933f6cb9f3376673440d862a610ccc611161565b610d49565b610d10576040517f08c379a0000000000000000000000000000000000000000000000000000000008152600401610d0790612a9f565b60405180910390fd5b610d18611a9c565b565b6000610d418260016000868152602001908152602001600020611b3f90919063ffffffff16565b905092915050565b600080600084815260200190815260200160002060000160008373ffffffffffffffffffffffffffffffffffffffff1673ffffffffffffffffffffffffffffffffffffffff16815260200190815260200160002060009054906101000a900460ff16905092915050565b606060068054610dc290612d19565b80601f0160208091040260200160405190810160405280929190818152602001828054610dee90612d19565b8015610e3b5780601f10610e1057610100808354040283529160200191610e3b565b820191906000526020600020905b815481529060010190602001808311610e1e57829003601f168201915b5050505050905090565b6000801b81565b60008060036000610e5b611161565b73ffffffffffffffffffffffffffffffffffffffff1673ffffffffffffffffffffffffffffffffffffffff16815260200190815260200160002060008573ffffffffffffffffffffffffffffffffffffffff1673ffffffffffffffffffffffffffffffffffffffff16815260200190815260200160002054905082811015610f18576040517f08c379a0000000000000000000000000000000000000000000000000000000008152600401610f0f90612aff565b60405180910390fd5b610f35610f23611161565b858584610f309190612c27565b611169565b600191505092915050565b6000610f54610f4d611161565b8484611334565b6001905092915050565b7f585dbb3f830c4325b9ffb1ad42c16ada76c518747b0fb7ee297b261fc6a0f29f81565b6000610f9f60016000848152602001908152602001600020611b59565b9050919050565b7f9f2df0fed2c77648de5860a4cc508cd0818c85b8b8a1ab4ceeef8d981c8956a681565b610fd48282611b6e565b610ff9816001600085815260200190815260200160002061169f90919063ffffffff16565b505050565b6000600360008473ffffffffffffffffffffffffffffffffffffffff1673ffffffffffffffffffffffffffffffffffffffff16815260200190815260200160002060008373ffffffffffffffffffffffffffffffffffffffff1673ffffffffffffffffffffffffffffffffffffffff16815260200190815260200160002054905092915050565b7f65d7a28e3265b37a6474929f336521b332c1681b933f6cb9f3376673440d862a81565b6110b38282611bd4565b5050565b60006110df836000018373ffffffffffffffffffffffffffffffffffffffff1660001b611cb4565b905092915050565b60007f7965db0b000000000000000000000000000000000000000000000000000000007bffffffffffffffffffffffffffffffffffffffffffffffffffffffff1916827bffffffffffffffffffffffffffffffffffffffffffffffffffffffff1916148061115a575061115982611d24565b5b9050919050565b600033905090565b600073ffffffffffffffffffffffffffffffffffffffff168373ffffffffffffffffffffffffffffffffffffffff1614156111d9576040517f08c379a00000000000000000000000000000000000000000000000000000000081526004016111d090612abf565b60405180910390fd5b600073ffffffffffffffffffffffffffffffffffffffff168273ffffffffffffffffffffffffffffffffffffffff161415611249576040517f08c379a0000000000000000000000000000000000000000000000000000000008152600401611240906128ff565b60405180910390fd5b80600360008573ffffffffffffffffffffffffffffffffffffffff1673ffffffffffffffffffffffffffffffffffffffff16815260200190815260200160002060008473ffffffffffffffffffffffffffffffffffffffff1673ffffffffffffffffffffffffffffffffffffffff168152602001908152602001600020819055508173ffffffffffffffffffffffffffffffffffffffff168373ffffffffffffffffffffffffffffffffffffffff167f8c5be1e5ebec7d5bd14f71427d1e84f3dd0314c0f7b2291e5b200ac8c7c3b925836040516113279190612b7f565b60405180910390a3505050565b600073ffffffffffffffffffffffffffffffffffffffff168373ffffffffffffffffffffffffffffffffffffffff1614156113a4576040517f08c379a000000000000000000000000000000000000000000000000000000000815260040161139b90612a7f565b60405180910390fd5b600073ffffffffffffffffffffffffffffffffffffffff168273ffffffffffffffffffffffffffffffffffffffff161415611414576040517f08c379a000000000000000000000000000000000000000000000000000000000815260040161140b9061287f565b60405180910390fd5b61141f838383611d8e565b6000600260008573ffffffffffffffffffffffffffffffffffffffff1673ffffffffffffffffffffffffffffffffffffffff168152602001908152602001600020549050818110156114a6576040517f08c379a000000000000000000000000000000000000000000000000000000000815260040161149d9061293f565b60405180910390fd5b81816114b29190612c27565b600260008673ffffffffffffffffffffffffffffffffffffffff1673ffffffffffffffffffffffffffffffffffffffff1681526020019081526020016000208190555081600260008573ffffffffffffffffffffffffffffffffffffffff1673ffffffffffffffffffffffffffffffffffffffff16815260200190815260200160002060008282546115449190612bd1565b925050819055508273ffffffffffffffffffffffffffffffffffffffff168473ffffffffffffffffffffffffffffffffffffffff167fddf252ad1be2c89b69c2b068fc378daa952ba7f163c4a11628f55a4df523b3ef846040516115a89190612b7f565b60405180910390a350505050565b6115cf6115c283610863565b6115ca611161565b610d49565b61160e576040517f08c379a00000000000000000000000000000000000000000000000000000000081526004016116059061289f565b60405180910390fd5b6116188282611bd4565b5050565b611624611161565b73ffffffffffffffffffffffffffffffffffffffff168173ffffffffffffffffffffffffffffffffffffffff1614611691576040517f08c379a000000000000000000000000000000000000000000000000000000000815260040161168890612b1f565b60405180910390fd5b61169b8282611e30565b5050565b60006116c7836000018373ffffffffffffffffffffffffffffffffffffffff1660001b611f11565b905092915050565b6116d7610bbc565b611716576040517f08c379a000000000000000000000000000000000000000000000000000000000815260040161170d906128bf565b60405180910390fd5b6000600760006101000a81548160ff0219169083151502179055507f5db9ee0a495bf2e6ff9c91a7834c1ba4fdd244a5e8aa4e537bd38aeae4b073aa61175a611161565b60405161176791906127ec565b60405180910390a1565b600073ffffffffffffffffffffffffffffffffffffffff168273ffffffffffffffffffffffffffffffffffffffff1614156117e1576040517f08c379a00000000000000000000000000000000000000000000000000000000081526004016117d890612b3f565b60405180910390fd5b6117ed60008383611d8e565b80600460008282546117ff9190612bd1565b9250508190555080600260008473ffffffffffffffffffffffffffffffffffffffff1673ffffffffffffffffffffffffffffffffffffffff16815260200190815260200160002060008282546118559190612bd1565b925050819055508173ffffffffffffffffffffffffffffffffffffffff16600073ffffffffffffffffffffffffffffffffffffffff167fddf252ad1be2c89b69c2b068fc378daa952ba7f163c4a11628f55a4df523b3ef836040516118ba9190612b7f565b60405180910390a35050565b600073ffffffffffffffffffffffffffffffffffffffff168273ffffffffffffffffffffffffffffffffffffffff161415611936576040517f08c379a000000000000000000000000000000000000000000000000000000000815260040161192d90612a5f565b60405180910390fd5b61194282600083611d8e565b6000600260008473ffffffffffffffffffffffffffffffffffffffff1673ffffffffffffffffffffffffffffffffffffffff168152602001908152602001600020549050818110156119c9576040517f08c379a00000000000000000000000000000000000000000000000000000000081526004016119c0906128df565b60405180910390fd5b81816119d59190612c27565b600260008573ffffffffffffffffffffffffffffffffffffffff1673ffffffffffffffffffffffffffffffffffffffff168152602001908152602001600020819055508160046000828254611a2a9190612c27565b92505081905550600073ffffffffffffffffffffffffffffffffffffffff168373ffffffffffffffffffffffffffffffffffffffff167fddf252ad1be2c89b69c2b068fc378daa952ba7f163c4a11628f55a4df523b3ef84604051611a8f9190612b7f565b60405180910390a3505050565b611aa4610bbc565b15611ae4576040517f08c379a0000000000000000000000000000000000000000000000000000000008152600401611adb9061299f565b60405180910390fd5b6001600760006101000a81548160ff0219169083151502179055507f62e78cea01bee320cd4e420270b5ea74000d11b0c9f74754ebdbfc544b05a258611b28611161565b604051611b3591906127ec565b60405180910390a1565b6000611b4e836000018361209b565b60001c905092915050565b6000611b6782600001612135565b9050919050565b611b87611b7a83610863565b611b82611161565b610d49565b611bc6576040517f08c379a0000000000000000000000000000000000000000000000000000000008152600401611bbd9061297f565b60405180910390fd5b611bd08282611e30565b5050565b611bde8282610d49565b611cb057600160008084815260200190815260200160002060000160008373ffffffffffffffffffffffffffffffffffffffff1673ffffffffffffffffffffffffffffffffffffffff16815260200190815260200160002060006101000a81548160ff021916908315150217905550611c55611161565b73ffffffffffffffffffffffffffffffffffffffff168173ffffffffffffffffffffffffffffffffffffffff16837f2f8788117e7eff1d82e926ec794901d17c78024a50270940304540a733656f0d60405160405180910390a45b5050565b6000611cc08383612146565b611d19578260000182908060018154018082558091505060019003906000526020600020016000909190919091505582600001805490508360010160008481526020019081526020016000208190555060019050611d1e565b600090505b92915050565b60007f01ffc9a7000000000000000000000000000000000000000000000000000000007bffffffffffffffffffffffffffffffffffffffffffffffffffffffff1916827bffffffffffffffffffffffffffffffffffffffffffffffffffffffff1916149050919050565b611d99838383612169565b600073ffffffffffffffffffffffffffffffffffffffff168373ffffffffffffffffffffffffffffffffffffffff161415611e2b57611dd66108bf565b81611ddf610758565b611de99190612bd1565b1115611e2a576040517f08c379a0000000000000000000000000000000000000000000000000000000008152600401611e21906129ff565b60405180910390fd5b5b505050565b611e3a8282610d49565b15611f0d57600080600084815260200190815260200160002060000160008373ffffffffffffffffffffffffffffffffffffffff1673ffffffffffffffffffffffffffffffffffffffff16815260200190815260200160002060006101000a81548160ff021916908315150217905550611eb2611161565b73ffffffffffffffffffffffffffffffffffffffff168173ffffffffffffffffffffffffffffffffffffffff16837ff6391f5c32d9c69d2a47ea670b442974b53935d1edc7fd64eb21e047a839171b60405160405180910390a45b5050565b6000808360010160008481526020019081526020016000205490506000811461208f576000600182611f439190612c27565b9050600060018660000180549050611f5b9190612c27565b90506000866000018281548110611f9b577f4e487b7100000000000000000000000000000000000000000000000000000000600052603260045260246000fd5b9060005260206000200154905080876000018481548110611fe5577f4e487b7100000000000000000000000000000000000000000000000000000000600052603260045260246000fd5b90600052602060002001819055506001836120009190612bd1565b8760010160008381526020019081526020016000208190555086600001805480612053577f4e487b7100000000000000000000000000000000000000000000000000000000600052603160045260246000fd5b60019003818190600052602060002001600090559055866001016000878152602001908152602001600020600090556001945050505050612095565b60009150505b92915050565b6000818360000180549050116120e6576040517f08c379a00000000000000000000000000000000000000000000000000000000081526004016120dd9061285f565b60405180910390fd5b826000018281548110612122577f4e487b7100000000000000000000000000000000000000000000000000000000600052603260045260246000fd5b9060005260206000200154905092915050565b600081600001805490509050919050565b600080836001016000848152602001908152602001600020541415905092915050565b6121748383836121c1565b61217c610bbc565b156121bc576040517f08c379a00000000000000000000000000000000000000000000000000000000081526004016121b390612b5f565b60405180910390fd5b505050565b505050565b6000813590506121d5816134ff565b92915050565b6000813590506121ea81613516565b92915050565b6000813590506121ff8161352d565b92915050565b60008135905061221481613544565b92915050565b60006020828403121561222c57600080fd5b600061223a848285016121c6565b91505092915050565b6000806040838503121561225657600080fd5b6000612264858286016121c6565b9250506020612275858286016121c6565b9150509250929050565b60008060006060848603121561229457600080fd5b60006122a2868287016121c6565b93505060206122b3868287016121c6565b92505060406122c486828701612205565b9150509250925092565b600080604083850312156122e157600080fd5b60006122ef858286016121c6565b925050602061230085828601612205565b9150509250929050565b60006020828403121561231c57600080fd5b600061232a848285016121db565b91505092915050565b6000806040838503121561234657600080fd5b6000612354858286016121db565b9250506020612365858286016121c6565b9150509250929050565b6000806040838503121561238257600080fd5b6000612390858286016121db565b92505060206123a185828601612205565b9150509250929050565b6000602082840312156123bd57600080fd5b60006123cb848285016121f0565b91505092915050565b6000602082840312156123e657600080fd5b60006123f484828501612205565b91505092915050565b61240681612c5b565b82525050565b61241581612c6d565b82525050565b61242481612c79565b82525050565b600061243582612bb5565b61243f8185612bc0565b935061244f818560208601612ce6565b61245881612da9565b840191505092915050565b6000612470602283612bc0565b915061247b82612dba565b604082019050919050565b6000612493602383612bc0565b915061249e82612e09565b604082019050919050565b60006124b6602f83612bc0565b91506124c182612e58565b604082019050919050565b60006124d9601483612bc0565b91506124e482612ea7565b602082019050919050565b60006124fc602283612bc0565b915061250782612ed0565b604082019050919050565b600061251f602283612bc0565b915061252a82612f1f565b604082019050919050565b6000612542603f83612bc0565b915061254d82612f6e565b604082019050919050565b6000612565602683612bc0565b915061257082612fbd565b604082019050919050565b6000612588602783612bc0565b91506125938261300c565b604082019050919050565b60006125ab603083612bc0565b91506125b68261305b565b604082019050919050565b60006125ce601083612bc0565b91506125d9826130aa565b602082019050919050565b60006125f1603f83612bc0565b91506125fc826130d3565b604082019050919050565b6000612614603c83612bc0565b915061261f82613122565b604082019050919050565b6000612637602b83612bc0565b915061264282613171565b604082019050919050565b600061265a602883612bc0565b9150612665826131c0565b604082019050919050565b600061267d602483612bc0565b91506126888261320f565b604082019050919050565b60006126a0602183612bc0565b91506126ab8261325e565b604082019050919050565b60006126c3602583612bc0565b91506126ce826132ad565b604082019050919050565b60006126e6603d83612bc0565b91506126f1826132fc565b604082019050919050565b6000612709602483612bc0565b91506127148261334b565b604082019050919050565b600061272c602983612bc0565b91506127378261339a565b604082019050919050565b600061274f602583612bc0565b915061275a826133e9565b604082019050919050565b6000612772602f83612bc0565b915061277d82613438565b604082019050919050565b6000612795601f83612bc0565b91506127a082613487565b602082019050919050565b60006127b8602a83612bc0565b91506127c3826134b0565b604082019050919050565b6127d781612ccf565b82525050565b6127e681612cd9565b82525050565b600060208201905061280160008301846123fd565b92915050565b600060208201905061281c600083018461240c565b92915050565b6000602082019050612837600083018461241b565b92915050565b60006020820190508181036000830152612857818461242a565b905092915050565b6000602082019050818103600083015261287881612463565b9050919050565b6000602082019050818103600083015261289881612486565b9050919050565b600060208201905081810360008301526128b8816124a9565b9050919050565b600060208201905081810360008301526128d8816124cc565b9050919050565b600060208201905081810360008301526128f8816124ef565b9050919050565b6000602082019050818103600083015261291881612512565b9050919050565b6000602082019050818103600083015261293881612535565b9050919050565b6000602082019050818103600083015261295881612558565b9050919050565b600060208201905081810360008301526129788161257b565b9050919050565b600060208201905081810360008301526129988161259e565b9050919050565b600060208201905081810360008301526129b8816125c1565b9050919050565b600060208201905081810360008301526129d8816125e4565b9050919050565b600060208201905081810360008301526129f881612607565b9050919050565b60006020820190508181036000830152612a188161262a565b9050919050565b60006020820190508181036000830152612a388161264d565b9050919050565b60006020820190508181036000830152612a5881612670565b9050919050565b60006020820190508181036000830152612a7881612693565b9050919050565b60006020820190508181036000830152612a98816126b6565b9050919050565b60006020820190508181036000830152612ab8816126d9565b9050919050565b60006020820190508181036000830152612ad8816126fc565b9050919050565b60006020820190508181036000830152612af88161271f565b9050919050565b60006020820190508181036000830152612b1881612742565b9050919050565b60006020820190508181036000830152612b3881612765565b9050919050565b60006020820190508181036000830152612b5881612788565b9050919050565b60006020820190508181036000830152612b78816127ab565b9050919050565b6000602082019050612b9460008301846127ce565b92915050565b6000602082019050612baf60008301846127dd565b92915050565b600081519050919050565b600082825260208201905092915050565b6000612bdc82612ccf565b9150612be783612ccf565b9250827fffffffffffffffffffffffffffffffffffffffffffffffffffffffffffffffff03821115612c1c57612c1b612d4b565b5b828201905092915050565b6000612c3282612ccf565b9150612c3d83612ccf565b925082821015612c5057612c4f612d4b565b5b828203905092915050565b6000612c6682612caf565b9050919050565b60008115159050919050565b6000819050919050565b60007fffffffff0000000000000000000000000000000000000000000000000000000082169050919050565b600073ffffffffffffffffffffffffffffffffffffffff82169050919050565b6000819050919050565b600060ff82169050919050565b60005b83811015612d04578082015181840152602081019050612ce9565b83811115612d13576000848401525b50505050565b60006002820490506001821680612d3157607f821691505b60208210811415612d4557612d44612d7a565b5b50919050565b7f4e487b7100000000000000000000000000000000000000000000000000000000600052601160045260246000fd5b7f4e487b7100000000000000000000000000000000000000000000000000000000600052602260045260246000fd5b6000601f19601f8301169050919050565b7f456e756d657261626c655365743a20696e646578206f7574206f6620626f756e60008201527f6473000000000000000000000000000000000000000000000000000000000000602082015250565b7f45524332303a207472616e7366657220746f20746865207a65726f206164647260008201527f6573730000000000000000000000000000000000000000000000000000000000602082015250565b7f416363657373436f6e74726f6c3a2073656e646572206d75737420626520616e60008201527f2061646d696e20746f206772616e740000000000000000000000000000000000602082015250565b7f5061757361626c653a206e6f7420706175736564000000000000000000000000600082015250565b7f45524332303a206275726e20616d6f756e7420657863656564732062616c616e60008201527f6365000000000000000000000000000000000000000000000000000000000000602082015250565b7f45524332303a20617070726f766520746f20746865207a65726f20616464726560008201527f7373000000000000000000000000000000000000000000000000000000000000602082015250565b7f45524332305072657365744d696e7465725061757365724361707065723a206d60008201527f75737420686176652063617070657220726f6c6520746f207365742063617000602082015250565b7f45524332303a207472616e7366657220616d6f756e742065786365656473206260008201527f616c616e63650000000000000000000000000000000000000000000000000000602082015250565b7f45524332305072657365744d696e7465725061757365724361707065723a206360008201527f6170206973203000000000000000000000000000000000000000000000000000602082015250565b7f416363657373436f6e74726f6c3a2073656e646572206d75737420626520616e60008201527f2061646d696e20746f207265766f6b6500000000000000000000000000000000602082015250565b7f5061757361626c653a2070617573656400000000000000000000000000000000600082015250565b7f45524332305072657365744d696e7465725061757365724361707065723a206d60008201527f75737420686176652070617573657220726f6c6520746f20756e706175736500602082015250565b7f45524332305072657365744d696e7465725061757365724361707065723a206d60008201527f7573742068617665206d696e74657220726f6c6520746f206d696e7400000000602082015250565b7f45524332305072657365744d696e7465725061757365724361707065723a206360008201527f6170206578636565646564000000000000000000000000000000000000000000602082015250565b7f45524332303a207472616e7366657220616d6f756e742065786365656473206160008201527f6c6c6f77616e6365000000000000000000000000000000000000000000000000602082015250565b7f45524332303a206275726e20616d6f756e74206578636565647320616c6c6f7760008201527f616e636500000000000000000000000000000000000000000000000000000000602082015250565b7f45524332303a206275726e2066726f6d20746865207a65726f2061646472657360008201527f7300000000000000000000000000000000000000000000000000000000000000602082015250565b7f45524332303a207472616e736665722066726f6d20746865207a65726f20616460008201527f6472657373000000000000000000000000000000000000000000000000000000602082015250565b7f45524332305072657365744d696e7465725061757365724361707065723a206d60008201527f75737420686176652070617573657220726f6c6520746f207061757365000000602082015250565b7f45524332303a20617070726f76652066726f6d20746865207a65726f2061646460008201527f7265737300000000000000000000000000000000000000000000000000000000602082015250565b7f596f752063616e27742073657420636170206c6f776572207468616e20746f7460008201527f616c20737570706c790000000000000000000000000000000000000000000000602082015250565b7f45524332303a2064656372656173656420616c6c6f77616e63652062656c6f7760008201527f207a65726f000000000000000000000000000000000000000000000000000000602082015250565b7f416363657373436f6e74726f6c3a2063616e206f6e6c792072656e6f756e636560008201527f20726f6c657320666f722073656c660000000000000000000000000000000000602082015250565b7f45524332303a206d696e7420746f20746865207a65726f206164647265737300600082015250565b7f45524332305061757361626c653a20746f6b656e207472616e7366657220776860008201527f696c652070617573656400000000000000000000000000000000000000000000602082015250565b61350881612c5b565b811461351357600080fd5b50565b61351f81612c79565b811461352a57600080fd5b50565b61353681612c83565b811461354157600080fd5b50565b61354d81612ccf565b811461355857600080fd5b5056fea2646970667358221220235c1a786ac9f73709d788419243eaa88285d26d1d3017636db4a9670b56764c64736f6c63430008040033",
  "immutableReferences": {},
  "source": "// SPDX-License-Identifier: MIT\r\n\r\npragma solidity ^0.8.0;\r\n\r\nimport \"../node_modules/@openzeppelin/contracts/token/ERC20/ERC20.sol\";\r\nimport \"../node_modules/@openzeppelin/contracts/token/ERC20/extensions/ERC20Burnable.sol\";\r\nimport \"../node_modules/@openzeppelin/contracts/token/ERC20/extensions/ERC20Pausable.sol\";\r\nimport \"../node_modules/@openzeppelin/contracts/access/AccessControlEnumerable.sol\";\r\nimport \"../node_modules/@openzeppelin/contracts/utils/Context.sol\";\r\n\r\n/**\r\n * @dev {ERC20} token, including:\r\n *\r\n *  - ability for holders to burn (destroy) their tokens\r\n *  - a minter role that allows for token minting (creation)\r\n *  - a pauser role that allows to stop all token transfers\r\n *\r\n * This contract uses {AccessControl} to lock permissioned functions using the\r\n * different roles - head to its documentation for details.\r\n *\r\n * The account that deploys the contract will be granted the minter and pauser\r\n * roles, as well as the default admin role, which will let it grant both minter\r\n * and pauser roles to other accounts.\r\n */\r\ncontract ERC20PresetMinterPauserCapper is Context, AccessControlEnumerable, ERC20Burnable, ERC20Pausable {\r\n    bytes32 public constant MINTER_ROLE = keccak256(\"MINTER_ROLE\");\r\n    bytes32 public constant PAUSER_ROLE = keccak256(\"PAUSER_ROLE\");\r\n    bytes32 public constant CAPPER_ROLE = keccak256(\"CAPPER_ROLE\");\r\n\r\n    uint256 private _cap;\r\n\r\n    /**\r\n     * @dev Grants `DEFAULT_ADMIN_ROLE`, `MINTER_ROLE` and `PAUSER_ROLE` to the\r\n     * account that deploys the contract.\r\n     *\r\n     * See {ERC20-constructor}.\r\n     */\r\n    constructor(string memory name, string memory symbol, uint256 cap_) ERC20(name, symbol) {\r\n        _setupRole(DEFAULT_ADMIN_ROLE, _msgSender());\r\n\r\n        _setupRole(MINTER_ROLE, _msgSender());\r\n        _setupRole(PAUSER_ROLE, _msgSender());\r\n        _setupRole(CAPPER_ROLE, _msgSender());\r\n\r\n        require(cap_ > 0, \"ERC20PresetMinterPauserCapper: cap is 0\");\r\n        _cap = cap_;\r\n    }\r\n\r\n    /**\r\n     * @dev Creates `amount` new tokens for `to`.\r\n     *\r\n     * See {ERC20-_mint}.\r\n     *\r\n     * Requirements:\r\n     *\r\n     * - the caller must have the `MINTER_ROLE`.\r\n     */\r\n    function mint(address to, uint256 amount) public virtual {\r\n        require(hasRole(MINTER_ROLE, _msgSender()), \"ERC20PresetMinterPauserCapper: must have minter role to mint\");\r\n        _mint(to, amount);\r\n    }\r\n\r\n    /**\r\n     * @dev Pauses all token transfers.\r\n     *\r\n     * See {ERC20Pausable} and {Pausable-_pause}.\r\n     *\r\n     * Requirements:\r\n     *\r\n     * - the caller must have the `PAUSER_ROLE`.\r\n     */\r\n    function pause() public virtual {\r\n        require(hasRole(PAUSER_ROLE, _msgSender()), \"ERC20PresetMinterPauserCapper: must have pauser role to pause\");\r\n        _pause();\r\n    }\r\n\r\n    /**\r\n     * @dev Unpauses all token transfers.\r\n     *\r\n     * See {ERC20Pausable} and {Pausable-_unpause}.\r\n     *\r\n     * Requirements:\r\n     *\r\n     * - the caller must have the `PAUSER_ROLE`.\r\n     */\r\n    function unpause() public virtual {\r\n        require(hasRole(PAUSER_ROLE, _msgSender()), \"ERC20PresetMinterPauserCapper: must have pauser role to unpause\");\r\n        _unpause();\r\n    }\r\n\r\n    function cap() public view virtual returns (uint256) {\r\n        return _cap;\r\n    }\r\n\r\n    function setCap(uint256 cap_) public virtual {\r\n        require(hasRole(CAPPER_ROLE, _msgSender()), \"ERC20PresetMinterPauserCapper: must have capper role to set cap\");\r\n        require(cap_ >= totalSupply(), \"You can't set cap lower than total supply\");\r\n        require(cap_ > 0, \"ERC20PresetMinterPauserCapper: cap is 0\");\r\n        _cap = cap_;\r\n    }\r\n\r\n    function _beforeTokenTransfer(address from, address to, uint256 amount) internal virtual override(ERC20, ERC20Pausable) {\r\n        super._beforeTokenTransfer(from, to, amount);\r\n\r\n        if (from == address(0)) { //when mint\r\n        require(totalSupply() + amount <= cap(), \"ERC20PresetMinterPauserCapper: cap exceeded\");\r\n        }\r\n    }\r\n}\r\n",
  "sourcePath": "C:/Users/Work/Documents/Ethereum-201/token/contracts/extension.sol",
  "compiler": {
    "name": "solc",
    "version": "0.8.4+commit.c7e474f2.Emscripten.clang"
  },
  "schemaVersion": "3.4.0",
  "updatedAt": "2021-05-04T14:20:17.104Z",
  "devdoc": {
    "details": "{ERC20} token, including:  - ability for holders to burn (destroy) their tokens  - a minter role that allows for token minting (creation)  - a pauser role that allows to stop all token transfers This contract uses {AccessControl} to lock permissioned functions using the different roles - head to its documentation for details. The account that deploys the contract will be granted the minter and pauser roles, as well as the default admin role, which will let it grant both minter and pauser roles to other accounts.",
    "kind": "dev",
    "methods": {
      "allowance(address,address)": {
        "details": "See {IERC20-allowance}."
      },
      "approve(address,uint256)": {
        "details": "See {IERC20-approve}. Requirements: - `spender` cannot be the zero address."
      },
      "balanceOf(address)": {
        "details": "See {IERC20-balanceOf}."
      },
      "burn(uint256)": {
        "details": "Destroys `amount` tokens from the caller. See {ERC20-_burn}."
      },
      "burnFrom(address,uint256)": {
        "details": "Destroys `amount` tokens from `account`, deducting from the caller's allowance. See {ERC20-_burn} and {ERC20-allowance}. Requirements: - the caller must have allowance for ``accounts``'s tokens of at least `amount`."
      },
      "constructor": {
        "details": "Grants `DEFAULT_ADMIN_ROLE`, `MINTER_ROLE` and `PAUSER_ROLE` to the account that deploys the contract. See {ERC20-constructor}."
      },
      "decimals()": {
        "details": "Returns the number of decimals used to get its user representation. For example, if `decimals` equals `2`, a balance of `505` tokens should be displayed to a user as `5,05` (`505 / 10 ** 2`). Tokens usually opt for a value of 18, imitating the relationship between Ether and Wei. This is the value {ERC20} uses, unless this function is overloaded; NOTE: This information is only used for _display_ purposes: it in no way affects any of the arithmetic of the contract, including {IERC20-balanceOf} and {IERC20-transfer}."
      },
      "decreaseAllowance(address,uint256)": {
        "details": "Atomically decreases the allowance granted to `spender` by the caller. This is an alternative to {approve} that can be used as a mitigation for problems described in {IERC20-approve}. Emits an {Approval} event indicating the updated allowance. Requirements: - `spender` cannot be the zero address. - `spender` must have allowance for the caller of at least `subtractedValue`."
      },
      "getRoleAdmin(bytes32)": {
        "details": "Returns the admin role that controls `role`. See {grantRole} and {revokeRole}. To change a role's admin, use {_setRoleAdmin}."
      },
      "getRoleMember(bytes32,uint256)": {
        "details": "Returns one of the accounts that have `role`. `index` must be a value between 0 and {getRoleMemberCount}, non-inclusive. Role bearers are not sorted in any particular way, and their ordering may change at any point. WARNING: When using {getRoleMember} and {getRoleMemberCount}, make sure you perform all queries on the same block. See the following https://forum.openzeppelin.com/t/iterating-over-elements-on-enumerableset-in-openzeppelin-contracts/2296[forum post] for more information."
      },
      "getRoleMemberCount(bytes32)": {
        "details": "Returns the number of accounts that have `role`. Can be used together with {getRoleMember} to enumerate all bearers of a role."
      },
      "grantRole(bytes32,address)": {
        "details": "Overload {grantRole} to track enumerable memberships"
      },
      "hasRole(bytes32,address)": {
        "details": "Returns `true` if `account` has been granted `role`."
      },
      "increaseAllowance(address,uint256)": {
        "details": "Atomically increases the allowance granted to `spender` by the caller. This is an alternative to {approve} that can be used as a mitigation for problems described in {IERC20-approve}. Emits an {Approval} event indicating the updated allowance. Requirements: - `spender` cannot be the zero address."
      },
      "mint(address,uint256)": {
        "details": "Creates `amount` new tokens for `to`. See {ERC20-_mint}. Requirements: - the caller must have the `MINTER_ROLE`."
      },
      "name()": {
        "details": "Returns the name of the token."
      },
      "pause()": {
        "details": "Pauses all token transfers. See {ERC20Pausable} and {Pausable-_pause}. Requirements: - the caller must have the `PAUSER_ROLE`."
      },
      "paused()": {
        "details": "Returns true if the contract is paused, and false otherwise."
      },
      "renounceRole(bytes32,address)": {
        "details": "Overload {renounceRole} to track enumerable memberships"
      },
      "revokeRole(bytes32,address)": {
        "details": "Overload {revokeRole} to track enumerable memberships"
      },
      "supportsInterface(bytes4)": {
        "details": "See {IERC165-supportsInterface}."
      },
      "symbol()": {
        "details": "Returns the symbol of the token, usually a shorter version of the name."
      },
      "totalSupply()": {
        "details": "See {IERC20-totalSupply}."
      },
      "transfer(address,uint256)": {
        "details": "See {IERC20-transfer}. Requirements: - `recipient` cannot be the zero address. - the caller must have a balance of at least `amount`."
      },
      "transferFrom(address,address,uint256)": {
        "details": "See {IERC20-transferFrom}. Emits an {Approval} event indicating the updated allowance. This is not required by the EIP. See the note at the beginning of {ERC20}. Requirements: - `sender` and `recipient` cannot be the zero address. - `sender` must have a balance of at least `amount`. - the caller must have allowance for ``sender``'s tokens of at least `amount`."
      },
      "unpause()": {
        "details": "Unpauses all token transfers. See {ERC20Pausable} and {Pausable-_unpause}. Requirements: - the caller must have the `PAUSER_ROLE`."
      }
    },
    "version": 1
  },
  "userdoc": {
    "kind": "user",
    "methods": {},
    "version": 1
  }
}